:020000004F2A85
:1000080070082000A2007108A1007208A0008031C9
:100018002100931D30282000931D30289311803033
:100028006C06F00080307002031D1C2800306B0243
:1000380003182128EB0A0319EC0A80306E06F00039
:1000480080307002031D2A2800306D0203182F2803
:10005800ED0A0319EE0A64000B1D45288B1E45287E
:100068000B118B1D3A282000E014452820000C1E97
:100078003F286015402860118B150B1027001312BC
:1000880064008B1DE0280B1CE0282700131EE028C5
:1000980020001508E600D13095008B110B102700C1
:1000A8001312200066081F3C031C5D28E0185D2819
:1000B80062286400E010E015E101E501E53560190A
:1000C80066286514E01DB7286108003A031D8128D9
:1000D8002309E700650823060319772865086706DA
:1000E80003197728E02865082306031D7D28601278
:1000F8007E286016E301E10AE0286400E30A08307C
:10010800630203188828E028601E8B28E50923303D
:10011800840000308500610884070318850A0008F8
:100128000319A6282330840000308500610884075D
:100138000318850A650800060319A3285D28E3014A
:10014800E10AE0286508103C0318AB285D2865081B
:10015800E200E40165082100B9002D222000E01129
:10016800E301E101E0286400E30A083063020318B0
:10017800BE28E028E301601EC228E50965082100C1
:10018800B9002D2220006208F000E203700803196C
:10019800D928A03086000030870061088607031838
:1001A800870A65088100E10ADF2864080319DD2849
:1001B8005D286014CD21640020002208F000210889
:0801C800F1002008F20009001B
:0A01D0001D30FD00FD0BEA280800B9
:0A01DA000000000000000000080013
:1001E40080302100B800B7093808031911293808EC
:1001F4003705F10071080130031D0030F00070185C
:10020400062920000C11082920000C15ED20ED20F2
:100214008C14E8208C10E8202100B836F628080059
:100224002000FB01FA01F9018030F800F10CF00C18
:10023400031C25297408F90775080318750FFA07B4
:100244000318FB0A0310F01F2D297408FA07750818
:100254000318750FFB07FB0CFA0CF90CF80C031CC4
:1002640018297B08F3007A08F2007908F10078086D
:04027400F00008008E
:1002780020000E1221003608B700F2200630FC00DC
:100288003030FD00FD0B4629FC0B462900002000FC
:040298000E16080036
:10029C0020001B08013EF000F1010030F13D21006F
:1002AC003208F400F50112210630F2007008F40057
:1002BC007108F500720803196729F536F40CFF3E36
:1002CC0061290430F1007408F000710803197129D8
:1002DC00F035FF3E6C2930307005F3007408F000E7
:1002EC007508F100F136F00CF136F00C70082500B1
:0C02FC0098000F309A0573089A0408005F
:1003080021008E1220001C150C30250093040800D3
:0A0318002500910113129312080052
:1003220020000E122100B20132083A3A0319A6291E
:100332002630840000308500320884070318850ABD
:100342000008B700F220B20A952920000E161A30D2
:10035200FC00F830FD00FD0BAC29FC0BAC290000C1
:0A03620036302100B6003C210800EF
:0A036C00250098011A129A120800E9
:1003760021000C140C118C1020000C100C118C1088
:0203860008006D
:1003880012001E00F003031DC429F103031DC42934
:0203980008005B
:0A039A008B138B128B118B170800D8
:1003A4008B138530210095008B168B1527001116B1
:1003B4001216FC302000E005E015E101E5018B1781
:0203C40008002F
:1003C6002000601CEC296010A030F0000030F10025
:0803D600EE29F001F10108001D
:1003DE0020001B08013EF000F1010030F13D21002C
:1003EE003208F400F50112210630F2007008F40014
:1003FE007108F50072080319082AF536F40CFF3E51
:10040E00022A0430F1007408F00071080319122A50
:10041E00F035FF3E0D2A30307005F3007408F00001
:10042E007508F100F136F00CF136F00C700825006D
:0C043E0091000F30930573089304080030
:10044A0021008E1120001C150C3025009A0408008A
:10045A002100BA01BA0108303A0203184E2A3908B3
:10046A00F2002000640821003906F1007108F20048
:10047A00711C452A18302000E4068030F200462A12
:10048A00F2012000E4367208E4042100B936BA0AFF
:04049A00302A0800FC
:10049E007623FF302100990010308C0020008C0153
:1004AE0021008E0120008E0123008C018E0122007E
:1004BE0091019301FF3028009E00210093156400E6
:1004CE0020001C149C14A6309B008C21842121003A
:1004DE00B201EF2120001C149C14A6309B00B62103
:1004EE0025222100B2014E2122000E16BB219121A0
:1004FE0034302100B6003C21D221D830ED00DC3062
:10050E00EE00E32170082100B0007108B100640014
:10051E00300831040319022BD8302000ED00DC30F6
:10052E00EE00210030088400310885000008F1003B
:10053E0071082000EF002100B00A0319B10A30083B
:10054E0084003108850000082000E900711CBF2AD4
:10055E00E80A053068020318B92AFF302100B200FC
:10056E00EF21BE2A200069082100B200EF21C42A23
:10057E002000E8012100B201EF212000EF1CD72A54
:10058E00EA0A05306A020318D12AFF302100B200B0
:10059E004E21D62A200069082100B2004E21DC2A05
:1005AE002000EA012100B2014E2120006F1DE22A37
:1005BE0022000E15E42A22000E112000EF1DEA2A59
:1005CE0022008E14EC2A22008E1020006F1EF22ABA
:1005DE0022000E14F72A2000EF1EF72A22000E101A
:1005EE002100A101A2012000EF01E901FD30EB0085
:1005FE00FF30EC00D2212000640080306C06F00049
:10060E0080307002031D0D2B00306B02031C1B2B60
:10061E002100B201EF212100B2014E2122000E1164
:10062E008E102000E801EA0180306E06F000803066
:10063E007002031D242B00306D02031C332B22008D
:10064E000E102100B201EF212100B2014E21220035
:0C065E000E118E100E126300882A342B3F
:1006EC0038308400833085003D30F0000130F1005B
:0C06FC002330860000308700C421080075
:060670007334683400340D
:100676000234003400340D34033447340834323441
:100686000B3406340C3400340D3410340E34B034CC
:100696000F3471341034A7341134323412343034F8
:1006A600133422341434F8341634073417343034FF
:1006B600183418341B3404341C3400341D3492347A
:1006C6002134B634223411342334E93424342A3420
:1006D6002534003426341F342C3481342D343534FB
:0406E6002E34093471
:020000040001F9
:04000E00940F131622
:00000001FF
