:020000006A296B
:1000080080318B1D0B280B1C0B2803140C280310A4
:10001800031C17280B102700131093101311131229
:0800280093128B019201090003
:100030000330FC009730FD00FD0B1C28FC0B1C2836
:06004000000000000800B2
:0A0046001D30FD00FD0B2528080009
:0A005000000000000000000008009E
:10005A002000EC01EC0108306C02031849286B08F7
:10006A00F20061086B06F1007108F200711C422867
:10007A001830E1068030F2004328F201E1367208B6
:0A008A00E104EB36EC0A3028080010
:1000940020006B08031953280E1018200E14182082
:0C00A40057280E1418200E101820080019
:1000B00080302000EC00EB096C08031974286C08F0
:1000C0006B05F10071080130031D0030F00070185D
:1000D0006B280E116C280E15282028200E162320C0
:0A00E0000E122320EC365C28080005
:1000EA0020008E126908EB0058200630FC003030E0
:1000FA00FD00FD0B7E28FC0B7E2800008E160800F2
:10010A002000EA016908EB002D20EA0108306A02A2
:10011A0003189A28E91F95280130EB004A209728EE
:0C012A00EB014A20E935EA0A8B280800A6
:100136000330FC009530FD00FD0B9F28FC0B9F282B
:020146000800AF
:100148002000E301E401E501E6018B13E301083037
:1001580063020318B4280130EB004A20E30AAB28F5
:100168002230840000308500650884070318850A5A
:100178000008F0007008E600E50A70080319C828AE
:100188006608E9008520C928CA28B428E101620860
:10019800E9008520E401620864020318E028A03021
:1001A800840000308500640884070318850A000865
:1001B800E9008520E40ACF286108E90085202200AB
:0601C8000E108B17080069
:0601CE0021000E100800E4
:1001D4002000E8016408F1000130F00071080319FF
:1001E400F628F035FF3EF1287008E7006208840025
:1001F4006308850070080005F10071080130031DD3
:100204000030F0006608F006031922296508003C56
:10021400031810299B209B20E50308296208840009
:100224006308850067080005F10071080130031DAB
:100234000030F0006608F00603192229FF30E800B8
:060244006808F00008004C
:10024A00103020006202031C2B293529A0308600B9
:10025A0000308700620886070318870A630881004E
:02026A0008008A
:10026C0012001E00F003031D3629F103031D36296D
:02027C00080078
:10027E0020008E12E20162083A3A03195329243003
:10028E00840000308500620884070318850A000880
:10029E00EB005820E20A42298E161A30FC00F83084
:1002AE00FD00FD0B5829FC0B582900003630E900E3
:0402BE00752008009F
:1002C20021008E150E110E1220008E110E110E122B
:0202D200080022
:1002D4006E22FF3021009900FF308C0023008C0136
:1002E4008E0120008C013F3024008C0021008E01FF
:1002F40020008E01210095018B011030970027000A
:10030400920161213F21E720640020002008031DA1
:100314009C2922008E1435302000E90075201A3003
:10032400FC00F830FD00FD0B9529FC0B952900001D
:100334000130A000200020080319272A64000C3093
:10034400E2000030E300E4011430E500E601EA20B5
:1003540070080319AE2921140C30E2000030E300C8
:100364000130E4001430E500E601EA2070080319C6
:10037400BC29A1140C30E2000030E3000230E40098
:100384001430E500E601EA2070080319CA29211592
:100394000C30E2000030E3000430E4001430E500E7
:1003A400E601EA2070080319D829A1150C30E200EF
:1003B4000030E3000530E4001430E5000130E600CD
:1003C400EA2070080319E8290130DF000C30E2004C
:1003D4000030E3000530E4001430E500E601EA20D3
:1003E40070080319052A5F080319052ADF0160094B
:1003F400F0007008E00070080319032A2116A11206
:10040400052A2112A11621080319172AE20121083D
:10041400E30025210130E2005E08E30025210230DB
:10042400E200A4202000A101262A0130DF002200DE
:100434008E1036302000E9007520A00188308B0032
:0E04440037302700920063009C298629282A61
:1004DC002C308400823085004130F0000130F10076
:0C04EC0020308600003087003621080018
:0204580000346E
:02045A0000346C
:04045C0073340034C1
:100460000234003400340D34033447340834323459
:100470000B3406340C3400340D3410340E34B034E4
:100480000F3471341034A734113432341234303410
:10049000133422341434F834163407341734303417
:1004A000183418341B3404341C3400341D34923492
:1004B0002134B634223411342334E93424342A3438
:1004C0002534003426341F342C3481342D34353413
:0404D0002E34093489
:0204D400803472
:0204D6000034F0
:0204D8000034EE
:020000040001F9
:04000E00843F131602
:00000001FF
